:100000000C942A000C9434000C9434000C943400AA
:100010000C9434000C9434000C9434000C94340090
:100020000C9434000C9434000C9434000C94340080
:100030000C9434000C9434000C9434000C94340070
:100040000C9434000C9434000C9434000C94340060
:100050000C94340011241FBECFE5D8E0DEBFCDBF25
:100060000E9436000C9424050C940000CF93DF937B
:10007000CDB7DEB7C454D1090FB6F894DEBF0FBEBA
:10008000CDBF8BE390E02FEFDC012C9380E090E07C
:10009000AAE7B4E48F87988BA98BBA8B20E030E075
:1000A0004AEF54E46F85788989899A890E948F0480
:1000B0006DA37EA38FA398A78DA19EA1AFA1B8A584
:1000C0008B8B9C8BAD8BBE8B20E030E040E85FE3F8
:1000D0006B897C898D899E890E94090488232CF470
:1000E00081E090E0988F8F8B54C020E03FEF4FE786
:1000F00057E46B897C898D899E890E948A04181631
:10010000D4F520E030E040E251E46F8578898989B8
:100110009A890E948F0469A77AA78BA79CA789A5B3
:100120009AA5ABA5BCA589A39AA3ABA3BCA369A1BF
:100130007AA18BA19CA10E940E046DA77EA78FA718
:1001400098ABADA5BEA5B88FAF8B10C088EC90E082
:100150009A8F898F898D9A8D0197F1F79A8F898F60
:1001600000008F89988D0197988F8F8B8F89988D3C
:10017000892B61F719C06B897C898D899E890E94C2
:100180000E0469AB7AAB8BAB9CABE9A9FAA9F88FEB
:10019000EF8B8F89988D9C8F8B8F8B8D9C8D01978A
:1001A000F1F79C8F8B8F000041E050E060E070E041
:1001B00080E090E00E947A0180E090E0AAE7B4E459
:1001C00089839A83AB83BC8320E030E04AEF54E418
:1001D00069817A818B819C810E948F046DAB7EAB9B
:1001E0008FAB98AF8DA99EA9AFA9B8AD8D839E8323
:1001F000AF83B88720E030E040E85FE36D817E8127
:100200008F8198850E94090488232CF481E090E076
:100210009A8789875BC020E03FEF4FE757E46D8105
:100220007E818F8198850E948A0418160CF03CC04C
:1002300020E030E040E251E469817A818B819C8149
:100240000E948F0469AF7AAF8BAF9CAF89AD9AAD36
:10025000ABADBCAD8D8F9E8FAF8FB8A36D8D7E8DF6
:100260008F8D98A10E940E0421966CAF7DAF8EAF4A
:100270009FAF2197ADADBEADBA87A98710C088ECFE
:1002800090E09C878B878B859C850197F1F79C87F5
:100290008B87000089859A8501979A878987898548
:1002A0009A85892B61F71DC06D817E818F8198852C
:1002B0000E940E0425966CAF7DAF8EAF9FAF259741
:1002C0002396EEADFFAD2397FA87E98789859A8556
:1002D0009E878D878D859E850197F1F79E878D87F7
:1002E000000040E050E060E070E080E090E00E94BC
:1002F0007A01CCCECF93DF93CDB7DEB728970FB678
:10030000F894DEBF0FBECDBF9C838B837E836D834D
:1003100058874F8381E090E09A8389838B819C8109
:10032000049728F083E090E09A83898306C18D8149
:100330009E81089728F084E090E09A838983FDC02D
:100340008F819885029728F085E090E09A838983D1
:10035000F4C08B819C81039709F4B7C08B819C8189
:10036000049708F0E7C08B819C81029709F478C05C
:100370008B819C81039708F0DDC08B819C81892B48
:1003800029F08B819C810197B1F1D4C08F81988530
:10039000892BC9F08F819885019759F58AE390E000
:1003A000E82FF92F8081282F81E090E00D8002C096
:1003B000880F991F0A94E2F7282B8AE390E0E82F30
:1003C000F92F208317C08AE390E0E82FF92F80816E
:1003D000282F81E090E00D8002C0880F991F0A94B9
:1003E000E2F7809528238AE390E0E82FF92F208315
:1003F00001C00000A0C08F819885892BC9F08F8132
:100400009885019759F587E390E0E82FF92F8081CF
:10041000282F81E090E00D8002C0880F991F0A9478
:10042000E2F7282B87E390E0E82FF92F208317C00D
:1004300087E390E0E82FF92F8081282F81E090E07A
:100440000D8002C0880F991F0A94E2F78095282337
:1004500087E390E0E82FF92F208301C000006BC0F4
:100460008F819885892BC9F08F819885019759F5DF
:1004700084E390E0E82FF92F8081282F81E090E03D
:100480000D8002C0880F991F0A94E2F7282B84E39D
:1004900090E0E82FF92F208317C084E390E0E82F45
:1004A000F92F8081282F81E090E00D8002C0880F15
:1004B000991F0A94E2F78095282384E390E0E82FBF
:1004C000F92F208301C0000036C08F819885892BC9
:1004D000C9F08F819885019759F581E390E0E82F65
:1004E000F92F8081282F81E090E00D8002C0880FD5
:1004F000991F0A94E2F7282B81E390E0E82FF92F67
:10050000208317C081E390E0E82FF92F8081282F06
:1005100081E090E00D8002C0880F991F0A94E2F7F5
:100520008095282381E390E0E82FF92F208301C0F4
:10053000000001C000001A82198289819A812896E0
:100540000FB6F894DEBF0FBECDBFDF91CF910895F7
:10055000CF93DF9300D000D000D0CDB7DEB79C831F
:100560008B837E836D8381E090E09A8389838B8186
:100570009C81049728F083E090E09A83898384C06B
:100580008D819E81029728F085E090E09A8389838F
:100590007BC08B819C81039709F45CC08B819C811B
:1005A000049708F06EC08B819C810297E1F18B81EA
:1005B0009C81039708F065C08B819C81892B29F071
:1005C0008B819C810197C1F05CC08D819E81892BBC
:1005D00059F08D819E81019769F48AE390E02FEFB5
:1005E000E82FF92F208307C08AE390E0E82FF92F46
:1005F000108201C0000046C08D819E81892B59F078
:100600008D819E81019769F487E390E02FEFE82FB9
:10061000F92F208307C087E390E0E82FF92F10829D
:1006200001C000002FC08D819E81892B59F08D81E2
:100630009E81019769F484E390E02FEFE82FF92F72
:10064000208307C084E390E0E82FF92F108201C0D7
:10065000000018C08D819E81892B59F08D819E816B
:10066000019769F481E390E02FEFE82FF92F2083C1
:1006700007C081E390E0E82FF92F108201C000004D
:1006800001C000001A82198289819A8126960FB6CC
:10069000F894DEBF0FBECDBFDF91CF910895CF9309
:1006A000DF93CDB7DEB728970FB6F894DEBF0FBE45
:1006B000CDBF9C838B837E836D8358874F8381E07E
:1006C00090E09A8389838B819C81049728F083E052
:1006D00090E09A83898392C08D819E81089728F04B
:1006E00084E090E09A83898389C08F819885892BE3
:1006F00029F482E090E09A83898380C08B819C8179
:10070000039709F460C08B819C81049708F073C043
:100710008B819C81029709F43EC08B819C81039759
:1007200008F069C08B819C81892B29F08B819C8189
:100730000197C9F060C089E390E0E82FF92F80812C
:10074000882F90E00D8002C0959587950A94E2F776
:1007500081709927282F392F8F819885E82FF92FBD
:100760003183208349C086E390E0E82FF92F808110
:10077000882F90E00D8002C0959587950A94E2F746
:1007800081709927282F392F8F819885E82FF92F8D
:100790003183208331C083E390E0E82FF92F8081FB
:1007A000882F90E00D8002C0959587950A94E2F716
:1007B00081709927282F392F8F819885E82FF92F5D
:1007C0003183208319C080E390E0E82FF92F8081E6
:1007D000882F90E00D8002C0959587950A94E2F7E6
:1007E00081709927282F392F8F819885E82FF92F2D
:1007F0003183208301C000001A82198289819A8185
:1008000028960FB6F894DEBF0FBECDBFDF91CF9113
:1008100008950E943D0408F481E008950E9469044F
:1008200088F09F5798F0B92F9927B751B0F0E1F0B1
:10083000660F771F881F991F1AF0BA95C9F714C061
:10084000B13091F00E948304B1E008950C948304C8
:10085000672F782F8827B85F39F0B93FCCF386959A
:1008600077956795B395D9F73EF4909580957095F7
:1008700061957F4F8F4F9F4F0895990F0008550F37
:10088000AA0BE0E8FEEF16161706E807F907C0F016
:1008900012161306E407F50798F0621B730B840B1E
:1008A000950B39F40A2661F0232B242B252B21F4F8
:1008B00008950A2609F4A140A6958FEF811D811D98
:1008C000089557FD9058440F551F59F05F3F71F040
:1008D0004795880F97FB991F61F09F3F79F08795A7
:1008E0000895121613061406551FF2CF4695F1DF30
:1008F00008C0161617061806991FF1CF86957105C0
:10090000610508940895E894BB2766277727CB01F3
:1009100097F908950E943D0408F48FEF08950E940E
:10092000A2040C9413050E94050538F00E940C05E2
:1009300020F0952311F00C94FC040C940205112472
:100940000C9484040E94610470F3959FC1F3950F89
:1009500050E0551F629FF001729FBB27F00DB11D43
:10096000639FAA27F00DB11DAA1F649F6627B00DD3
:10097000A11D661F829F2227B00DA11D621F739FBC
:10098000B00DA11D621F839FA00D611D221F749FCA
:100990003327A00D611D231F849F600D211D822F11
:1009A000762F6A2F11249F5750409AF0F1F0882338
:1009B0004AF0EE0FFF1FBB1F661F771F881F915065
:1009C0005040A9F79E3F510580F00C94FC040C9414
:1009D00084045F3FE4F3983ED4F38695779567955A
:1009E000B795F795E7959F5FC1F7FE2B880F911D8F
:1009F0009695879597F9089597F99F6780E870E035
:100A000060E008959FEF80EC089500240A94161684
:100A1000170618060906089500240A9412161306EC
:100A2000140605060895092E0394000C11F488237A
:100A300052F0BB0F40F4BF2B11F460FF04C06F5F96
:0C0A40007F4F8F4F9F4F0895F894FFCF19
:00000001FF
